:100000000C9443020C94FF1C0C948A020C948A02F8
:100010000C948A020C948A020C948A020C948A0230
:100020000C948A020C948A020C948F240C946125FF
:100030000C94BF1F0C948A020C948A020C948A02BE
:100040000C948A020C948A020C948A020C948A0200
:100050000C948A020C9434200C948A020C948A0228
:100060000C948A020C948A020C948A020C948A02E0
:100070000C948A020C948A020C948A020C948A02D0
:100080000C948A020C948A020C948A020C948A02C0
:100090000C948A020C948A020C948A020C948A02B0
:1000A0000C948A020C948A020C948A022105210580
:1000B00053055305A005BE05DF06DF06C9055E062C
:1000C0006F066F06CF06DF06DF06D8067F077F07BD
:1000D0009107910788079107910791077F077F078D
:1000E0008D07910791078D07CE25F525ED26F5257E
:1000F000ED2641266426ED26BB26CA260151025173
:100100002502260200002C002B0014001A00080013
:1001100015001700E10004001600070009000A009E
:10012000E0001D001B000600190005000000000093
:1001300000000000000000000000000000000000BF
:1001400000000000000000000000000000000000AF
:100150001C0018000C00120013002F000B000D00F3
:100160000E000F003300340011001000360037007D
:100170003800E6002C002A00241427140000000098
:1001800028004C00E300E200000000000100010034
:100190000100010000000100290000004E00520093
:1001A0004B00000000004A00500051004F004D007D
:1001B000000000000000000000000000000000003F
:1001C000000000000000000000000000000000002F
:1001D000000000000000000000000000000000001F
:1001E00000004E0052004B00000000004A0050008A
:1001F00051004F004D000000AA00AC00AE00AB0063
:10020000A9000000010001002514261400000000D0
:100210000100010001000100000000001050010079
:10022000000000000000000000000000000052007C
:100230000000000000000000500051004F000000CE
:1002400000000000000000000000000000000000AE
:10025000000000000000000000000000000000009E
:10026000000000000000000000000000000000008E
:1002700054005F00600061005700000055005C0002
:100280005D005E0085000000560059005A005B00CA
:100290006700000001000100620063000000000030
:1002A0000100010001000100000000001250105088
:1002B000000000000000000000000000000000003E
:1002C000000000000000000000000000000000002E
:1002D000000000000000000000000000000000001E
:1002E000000000000000000000000000000000000E
:1002F00000000000000000000000000000000000FE
:1003000000000000000000000000000000000400E9
:1003100016000700000000000000000000000000C0
:1003200000000000000000000000000000000000CD
:100330000000000000000000000000002C0344004A
:1003400061006300740079006C002D004D006100B5
:100350006E00750066006F0072006D0020002800BE
:10036000350078003600290000000E037400730089
:1003700068006F00720074000000040309040902A1
:100380003B00020100A0FA09040000010301010082
:100390000921110100012240000705810308000A1C
:1003A00009040100010300000009211101000122DC
:1003B0007B000705820320000A12010002000000F2
:1003C000084D44363501000102000105010902A172
:1003D0000185020901A10005091901290815002557
:1003E0000195087501810205010930093115812542
:1003F0007F95027508810609381581257F9501755D
:10040000088106050C0A38021581257F95017508BB
:100410008106C0C005010980A101850319012AB721
:1004200000150126B700950175108100C0050C0963
:1004300001A101850419012AA002150126A0029537
:100440000175108100C005010906A101050719E029
:1004500029E71500250195087501810295017508A8
:1004600081010507190029FF150026FF0095067573
:100470000881000508190129059505750191029566
:100480000175039101C011241FBECFEFDAE0DEBF7A
:10049000CDBF04B603FE27C08091BD029091BE027D
:1004A000A091BF02B091C0028730904BA740B04BE3
:1004B000D1F41092BD021092BE021092BF021092AF
:1004C000C00214BE84B7877F84BF0FB6F894A89586
:1004D00080916000886180936000109260000FBE80
:1004E000E0E0F8E3099511E0A0E0B1E0E6E7FFE421
:1004F00002C005900D92A83AB107D9F722E0A8EA08
:10050000B1E001C01D92AD3BB207E1F70E940B16AE
:100510000C94B9270C94000081E0089581E00895BF
:100520000C948E0208950C9492021F93CF93DF9344
:1005300000D000D01F92CDB7DEB749835A836B83BA
:100540003091AA0189819A81311114C0662359F032
:10055000222349F00E942509182F682F89819A814A
:100560000E94CC0803C00E94F808182F69817A8184
:10057000812F04C00E94250969817A810F900F9014
:100580000F900F900F90DF91CF911F910C94DA0F85
:10059000FC01262F408151816281738184810C94FA
:1005A000950281E00895CF93DF93EC0160E00E9413
:1005B000C802BE01DF91CF910C9493020E94F0110A
:1005C0000E944F030C942A120C94261208950E9444
:1005D0006D070E94E6022FEF84E39CE021508040EB
:1005E0009040E1F700C000000C945A200F931F9335
:1005F000CF93DF938C0161E00E94C802EC01B80147
:100600000E9490028823F1F1B801CE010E94A91A3C
:100610008823C1F1B801CE010E94FB1A882391F111
:10062000B801CE010E942D1C882361F1F80182815E
:10063000882309F1CB358DE5D807C1F050F4C115F9
:10064000FCE5DF0781F0CF3DDC45A9F40E94F00E08
:1006500019C0CC35EDE5DE0761F0CD35DD4559F447
:100660000E947A0D08C00E94E7020CC00E94830D10
:1006700002C00E94860DC801DF91CF911F910F919A
:100680000C948C0280E0DF91CF911F910F9108951F
:1006900008950C94480381E008950C944B03089549
:1006A000CF93C82F0E9449038C2F0E944D03CF91F6
:1006B0000895CF93DF93CDB7DEB72B970FB6F8949D
:1006C000DEBF0FBECDBF4F83588769877A878B8780
:1006D00061110E94A90D9E012F5F3F4F86E0F90135
:1006E00011928A95E9F785E0FE013796D9010190CC
:1006F0000D928A95E1F789819A814C815D81452B24
:1007000031F09F3F31F491E08F3F19F403C091E045
:1007100001C090E090FF09C049815A816B817C81C2
:100720008D819E810E94A90C05C0C9010E94D10241
:100730008111F2CF2B960FB6F894DEBF0FBECDBF5E
:10074000DF91CF910895FC01808191810E9467091A
:100750000895CF93882309F4A9C0C82F8238C1F423
:100760000E94831E81FDA2C069E3809100019091E7
:1007700001010E941D1F0E94DB0D2FEF81EE94E00E
:10078000215080409040E1F700C0000069E319C0AB
:10079000833801F50E94831E80FD88C063E5809147
:1007A0000001909101010E941D1F0E94DB0D2FEF9F
:1007B00081EE94E0215080409040E1F700C00000BD
:1007C00063E580910001909101010E941F1FCF916C
:1007D0000C94DB0D8438C1F40E94831E82FD66C038
:1007E00067E480910001909101010E941D1F0E9409
:1007F000DB0D2FEF81EE94E0215080409040E1F737
:1008000000C0000067E4DDCF8CEF8C0F813AF8F474
:100810008C2F0E944217811149C06C2F80910001DA
:10082000909101010E94E71E882349F06C2F80916E
:100830000001909101010E941F1F0E94DB0D6C2F8F
:1008400080910001909101010E941D1FC0CF80E2A4
:100850008C0F883048F4C77081E001C0880FCA95BA
:10086000EAF70E948C0DB3CFEBE5EC0FE33040F4D8
:10087000F0E0E05AFE4F808190E0CF910C94AF1EE3
:10088000E8E5EC0FE73150F4F0E0EE0FFF1FEE5C0F
:10089000FE4F80819181CF910C94C51ECD3E30F0EA
:1008A0008C2F0E940D18CF910C94DF18CF910895D2
:1008B000882309F464C0823879F40E94831E81FF82
:1008C0005EC069E380910001909101010E941D1FAB
:1008D0000E94DB0D69E310C08338B1F40E94831ECF
:1008E00080FF4DC063E580910001909101010E945D
:1008F0001D1F0E94DB0D63E58091000190910101B5
:100900000E941F1F0C94DB0D843879F40E94831E13
:1009100082FF35C067E480910001909101010E943F
:100920001D1F0E94DB0D67E4E7CF9CEF980F913A03
:1009300010F4682FE1CF90E2980F983050F4877050
:1009400091E001C0990F8A95EAF7892F0E94920DD4
:10095000D9CF9BE5980F933020F480E090E00C9481
:10096000AF1E98E5980F973120F480E090E00C944A
:10097000C51E8D3E20F00E9468180C94DF18089563
:100980001F93CF93DF93182FEB010E94A9032097A9
:1009900041F08FE99FE00197F1F700C00000219737
:1009A000F6CF812FDF91CF911F910C94580489339A
:1009B00019F060E070E002C060E570E00C94C004E3
:1009C000882321F00E948C0D0C94DB0D0895882360
:1009D00021F00E94920D0C94DB0D0895CF92DF92CE
:1009E000EF92FF920F931F93CF93DF937C01062F1B
:1009F000C72FFC01D281158112951F700E94610DD5
:100A0000882399F0DD2389F08C2F807F803421F0BA
:100A100080E2800F883048F082E00E942B0E0E9416
:100A2000610D91E0D82ED92601C0D12CCC2EC294D4
:100A30008FE0C8228C2D90E0FC01EA5AFF4F0C9405
:100A400047278C2F807FCF70882311F0C295C07FFD
:100A5000DD2399F0CC2309F48DC180E2800F88302A
:100A600010F0011104C08C2F0E948C0D03C08C2F3C
:100A70000E949C0D0E94DB0D7DC1802F0E945804B6
:100A8000CC2309F49CC180E2800F883010F0011162
:100A900004C08C2F0E94920D03C08C2F0E94A20DC7
:100AA0000E94DB0D8CC18C2F807FCF70803211F0C3
:100AB000C295C07F002319F00130C9F022C0DD23A8
:100AC00071F0112341F0113031F40E94BC0D8C2BD8
:100AD0000E94C40D74C10E94BC0D8C2B1DC011233B
:100AE00019F0113009F46BC10E94D10D25C0DD232E
:100AF00021F0163008F063C10EC0153008F05FC158
:100B00001BC0DD2361F0112331F0F701858180FFE7
:100B100031C18F7085838C2F0E94E00450C1112356
:100B200059F0093309F037C1FFEF27EE83E0F150A8
:100B300020408040E1F72DC18C2F0E94E7043FC187
:100B40008C2F86958695837019F0813061F037C1BE
:100B5000DD2321F0802F9C2F937002C080E090E075
:100B60000E94AF1E34C1DD2321F0802F9C2F937093
:100B700002C080E090E00E94C51E29C1802FDD23C5
:100B800019F00E940D1802C00E9468180E94DF1818
:100B90001EC18C2F837009F045C0D11114C1402FA4
:100BA000429546954770440F440F602F6F70862F13
:100BB00090E0A0E0B0E0042E04C0880F991FAA1FA7
:100BC000BB1F0A94D2F704FF10C00FE010E020E032
:100BD00030E004C0000F111F221F331F4A95D2F7C7
:100BE000009510952095309503C000E010E0980125
:100BF000C695C695C370BC01CD01602B712B822BAD
:100C0000932BC23049F058F4C13019F00E94E2072A
:100C1000DAC00E94D007D7C00E94F407D4C00E9457
:100C2000CE07D1C0DD2319F08C2F817001C08695CD
:100C3000882309F4C8C0402F429546954770440F59
:100C4000440F602F6F70862F90E0A0E0B0E0042E7C
:100C500004C0880F991FAA1FBB1F0A94D2F704FF74
:100C600010C00FE010E020E030E004C0000F111FC2
:100C7000221F331F4A95D2F7009510952095309585
:100C800003C000E010E09801C695C695C370BC0192
:100C9000CD01602B712B822B932BC23049F058F47D
:100CA000C13019F00E94A7088EC00E9495088BC021
:100CB0000E94B90888C00E94080885C0CF70DD2353
:100CC00039F08C2F0E942E08802F0E94E0047BC0F8
:100CD000802F0E94E7048C2F0E944F0874C0023FAF
:100CE00001F128F4003F41F0013FA1F03FC0033F74
:100CF000F9F0043F39F13AC0DD2341F0153008F036
:100D00005EC08C2F8F710E94740859C0163008F095
:100D100056C0F7CFDD2339F08C2F8F710E942E083B
:100D20004EC0DD23C9F38C2F8F710E944F0847C03E
:100D3000DD2329F08C2F8F710E94190840C00E947A
:100D400014083DC0DD2349F0CF718C2F0E942E087E
:100D500063E08C2F0E94100E32C081E00E942B0EA7
:100D6000123068F182E00E942B0E29C0DD2331F0A1
:100D7000112391F2802F0E94A90321C0112399F21F
:100D8000093349F49FEFE7EEF3E09150E040F04083
:100D9000E1F700C00000802F0E94580410C04C2FC3
:100DA0004F70602FC7010E94D60F0E9495090FC097
:100DB0004C2F4F70602FC7010E94D90F08C088EFD9
:100DC0008C0D843020F40E94831E0E945003DD208D
:100DD000C9F00E945D0D80FD15C0F70112820E94CE
:100DE000570D0E942E08C7010E9423070E94570D2D
:100DF000DF91CF911F910F91FF90EF90DF90CF90F7
:100E00000C944F08DF91CF911F910F91FF90EF90BD
:100E1000DF90CF9008950F931F93CF93DF93EC0152
:100E2000688179818A810E9472098C010E94CB08B5
:100E30000E94BC07B801CE010E94EE04DF91CF9161
:100E40001F910F910895CF93DF93EC0198818981D1
:100E50002B813C81232B31F08F3F31F481E09F3F88
:100E600019F403C081E001C080E080FD19C0CE010B
:100E70000E94F60281110CC00E94610D882381F04E
:100E80008A81882369F082E0DF91CF910C942B0E48
:100E9000CE010E940B07CE01DF91CF910C94D302BB
:100EA000DF91CF91089580E090E00E94AF1E80E036
:100EB00090E00E94C51E0E94A90D0E94B90D0E94DB
:100EC000DB0D0E94101A0C94DF18809100019091A4
:100ED00001010E94211F0C9453070E94990D0C944C
:100EE0006507E92FE295EF704E2F50E0FA01329737
:100EF000EE30F105B0F4EA59FF4F0C944727803FDC
:100F000091F018F4883E68F40EC0843F51F40BC091
:100F1000883E48F0813F29F406C093FB882780F97A
:100F2000089580E0089581E00895FC018081918119
:100F30000E9467090E9471070895CF93DF9300D044
:100F400000D01F92CDB7DEB70F900F900F900F908B
:100F50000F90DF91CF910895CF93DF9300D000D011
:100F600000D0CDB7DEB726960FB6F894DEBF0FBE21
:100F7000CDBFDF91CF910895089508950C94BD07DA
:100F80000C94BE070E94C0076093DC017093DD01E2
:100F90008093DE019093DF010C9453070C94C207F9
:100FA0000F931F930091DC011091DD012091DE0170
:100FB0003091DF01602B712B822B932B1F910F91AE
:100FC0000C94C2070F931F930091DC011091DD0177
:100FD0002091DE013091DF0160237123822393236E
:100FE0001F910F910C94C2070F931F930091DC0186
:100FF0001091DD012091DE013091DF016027712722
:10100000822793271F910F910C94C2070C94BD0760
:101010000E9406086093D8017093D9018093DA0189
:101020009093DB010C94530760E070E0CB010C94CB
:1010300008080F931F9341E050E060E070E08A01E0
:101040009B0104C0000F111F221F331F8A95D2F786
:10105000C901B8011F910F910C9408080F931F93B9
:1010600041E050E060E070E004C0440F551F661F8F
:10107000771F8A95D2F78091D8019091D901A091DC
:10108000DA01B091DB018A019B01082B192B2A2B75
:101090003B2BC901B8011F910F910C9408080F93C5
:1010A0001F9341E050E060E070E004C0440F551F22
:1010B000661F771F8A95D2F7409550956095709579
:1010C0008091D8019091D901A091DA01B091DB0112
:1010D0008A019B01082319232A233B23C901B80154
:1010E0001F910F910C9408080F931F9341E050E05B
:1010F00060E070E004C0440F551F661F771F8A959B
:10110000D2F78091D8019091D901A091DA01B091E4
:10111000DB018A019B01082719272A273B27C901E0
:10112000B8011F910F910C9408080F931F93009121
:10113000D8011091D9012091DA013091DB01602BA7
:10114000712B822B932B1F910F910C9408080F93F6
:101150001F930091D8011091D9012091DA013091AB
:10116000DB0160237123822393231F910F910C9441
:1011700008080F931F930091D8011091D901209175
:10118000DA013091DB0160277127822793271F91B5
:101190000F910C9408080895292F220F920F990F90
:1011A000890FE82FE695E695E695877051E001C036
:1011B000550F8A95EAF785E0E89FF0011124E5557F
:1011C000FE4F20E030E070E04081CB01022E02C0F3
:1011D000969587950A94E2F78170819584278523F7
:1011E000842781932F5F3F4F2530310569F708959C
:1011F000292F220F920F990F890F682F66956695F8
:101200006695982F977085E0689FB001112440E0A3
:1012100050E080E0FB01E40FF51FE555FE4F208113
:1012200030E0092E02C0369527950A94E2F7217026
:101230003327042E01C0220F0A94EAF7822B4F5F56
:101240005F4F4530510531F70895BF92CF92DF923D
:10125000EF92FF920F931F93CF93DF938C01C09077
:10126000D801D090D901E090DA01F090DB018091B3
:10127000DC019091DD01A091DE01B091DF01C82A6F
:10128000D92AEA2AFB2ACFE1D0E0D701C6010C2EE9
:1012900004C0B695A795979587950A94D2F780FDD7
:1012A00004C0219790F7B12C07C0BC2EB8018C2F39
:1012B0000E9411110197A9F38B2DDF91CF911F91FE
:1012C0000F91FF90EF90DF90CF90BF900895CF9354
:1012D000DF93EC010E942509BE010E941111DF91EC
:1012E000CF9108951F93CF93DF93EB019091AA01C3
:1012F000992321F0CB010E94670913C0882349F08C
:10130000CB010E942509182F682FCE010E94CC081E
:1013100004C0CB010E94F808182FBE01812F0E9443
:101320001111DF91CF911F910895EF92FF920F93CA
:101330001F93CF93DF938C01892B09F46CC0F12CA0
:10134000EE24E394E8012196F8018491843740F477
:10135000843008F051C0813081F0823019F15BC0D7
:10136000853709F444C0A8F19CE7980F903708F03E
:1013700052C08F770E94580441C00E5F1F4FFE017C
:10138000849190E2980F983050F48770FE2D01C040
:10139000FF0F8A95EAF78F2F0E94AC0D14C00E94B0
:1013A000A9032DC00E5F1F4FFE01849190E2980F9C
:1013B000983060F48770FE2D01C0FF0F8A95EAF720
:1013C0008F2F0E94B20D0E94DB0D19C00E9458049D
:1013D00016C00E5F1F4FFE01C491CC2381F08FE930
:1013E0009FE00197F1F700C00000C150F6CF0E5FFB
:1013F0001F4FFE01F49003C00E94A9038E018F2DA0
:10140000882309F49FCFEFE9FFE03197F1F700C09F
:1014100000008150F5CFDF91CF911F910F91FF9088
:10142000EF9008951F93CF93DF93C091E00116E0F2
:101430008091E101C81799F0D0E01C9FF0011D9F39
:10144000F00D1124EE51FE4F408151816281738174
:10145000848195810E94AC072196C770E9CFDF9106
:10146000CF911F9108954091120250911302609103
:1014700014027091150280911602909117020C943B
:10148000AC072091E0019091E10156E02917A9F005
:1014900030E0529FF001539FF00D1124EE51FE4FAA
:1014A0007181761306C07081781303C07281741342
:1014B00006C02F5F3F4F2770E9CF80E0089581E09D
:1014C00008950F931F93CF93DF9380911702829516
:1014D0008F7009F05DC080911402882309F458C010
:1014E0008091E0011091E10160911202709113026C
:1014F000C0911502D091160291E06F3F09F090E083
:10150000292F06E0811709F443C0209721F07F3F7F
:1015100021F030E003C031E001C0322F90E030FD17
:1015200034C0089FF001099FF00D1124DF01AE5176
:10153000BE4F11963C911197371327C03C9136133B
:1015400024C012963C91129731111FC013964D91F1
:101550005C9114974C1B5D0B483C5105B0F4809195
:1015600017028F70806180931702E951FE4F8081CE
:101570008F708061808382E192E00E942307DF9177
:10158000CF911F910F910C94120A01968770BACFD8
:10159000DF91CF911F910F9108958F929F92AF92FB
:1015A000BF92CF92DF92EF92FF920F931F93CF9350
:1015B000DF93CDB7DEB761970FB6F894DEBF0FBEED
:1015C000CDBF8C0185E0F801DE011D9601900D92E2
:1015D0008A95E1F7D8011296EC9090911202209131
:1015E000130240911502509116024115510531F038
:1015F0002F3F31F481E09F3F19F403C081E001C027
:1016000080E080FD78C1F801C080D1808380948023
:1016100082E1A82E82E0B82EF0901402B401641B7F
:10162000750BFF2009F411C180911702382F307F0C
:10163000683C710508F0CBC031118AC0D21214C0C9
:10164000C91212C0FE2CE1100FC08F708061809310
:1016500017020E94330AC5010E94230780911702D6
:10166000D80115968C9361C18114910439F0BFEFB4
:10167000DB1206C081E0CB1203C003C081E001C0D1
:1016800080E080FD03C081E08E2502C080E090E014
:1016900080FF10C04E2D6D2D8C2D0E94410A882395
:1016A00049F082E192E00E942307E2E1F2E086E065
:1016B000DF019DC0892839F0BFEFDB1206C081E051
:1016C000CB1203C003C081E001C080E080FD03C0F5
:1016D00081E08E2502C080E090E0E82FE170BE2E10
:1016E00080FF2CC04E2D6D2D8C2D0E94410AF82EAE
:1016F000811124C0CD86DE868D859E850E94670976
:10170000292F22952F70223018F0243090F405C034
:101710009F7059F0811109C008C19F7031F0D80144
:1017200015969C91907F09F400C1805E883008F482
:10173000FCC0C8010E942307FB2CF7C0FE2CEE2042
:1017400009F4F3C08091170281608093170254C09E
:10175000D21206C0C91204C0E11002C0F80199C03B
:10176000C8010E949507882361F1EE2051F1209174
:101770001702822F82958F7090E0029774F080910B
:1017800012029091130298878F8319869B868A860E
:101790002C87CE0107960E94230786E0F801A2E17C
:1017A000B2E001900D928A95E1F70E94610A0E94D1
:1017B000330A0AC0D21611F1C8010E94950781119F
:1017C0002CC0C8010E942307FF24F394AEC031113E
:1017D000F1CF782D998A888AA6016E2D89890E9479
:1017E0009D0782E192E00E94230786E0D5011D92C9
:1017F0008A95E9F70E94330AF12C97C0C912DCCF11
:10180000E110DACFF8018583C8010E94230786E042
:10181000D5011D928A95E9F788C0EE2091F22091BA
:101820001702822F82958F7090E002970CF4B5CF4B
:1018300080911202909113029A8389831B829D8268
:101840008C822E83CE010196A6CF683C710508F0EC
:1018500044C0FE2CEE2009F4B4CFD21230C0C9121D
:101860002EC02091170220FD21C0822F82958F70FB
:10187000482F50E041155105C9F0F80125834F303C
:10188000510541F08F5F982F9295907F822F8F7036
:10189000892B8583C8010E94230786E0F801A2E115
:1018A000B2E001900D928A95E1F73DC086E0F80123
:1018B000A2E1B2E001900D928A95E1F736C0C8012D
:1018C0000E949507811169CF8091170281608093F2
:1018D0001702C8010E94230728C0782D998A888A98
:1018E000A6016E2D89890E949D0786E0D5011D9273
:1018F0008A95E9F718C0EE2009F463CFC8010E9469
:101900009507F82E882309F45CCF86E0F801A2E160
:10191000B2E001900D928A95E1F782E192E00E9497
:10192000A3030E94610A0E94330A8F2D61960FB6AD
:10193000F894DEBF0FBECDBFDF91CF911F910F9105
:10194000FF90EF90DF90CF90BF90AF909F908F90DF
:1019500008951F93CF93DF93CDB7DEB72C970FB6C3
:10196000F894DEBF0FBECDBF4F83588769877A8753
:101970008B879C87CE0107960E94CD0A8823D1F0E1
:101980009F8188852A853B85232B31F08F3F31F459
:1019900081E09F3F19F403C081E001C080E080FD39
:1019A00047C04F81588569857A858B859C850E94C3
:1019B000AC073EC086E0FE013796DE01119601902D
:1019C0000D928A95E1F7FF81E8856A857B8561152F
:1019D000710531F0EF3F31F481E0FF3F19F403C0AE
:1019E00081E001C080E080FD23C02091E10130E072
:1019F000C9010196877099274091E00150E0841752
:101A00009507F1F1F983EA837D836C8396E0929FD9
:101A1000D001939FB00D1124AE51BE4FFE013196FF
:101A200001900D929A95E1F78093E1010E94120ACC
:101A300016E08091E0019091E101891771F1189F02
:101A4000C00111248E519E4F0E94CD0A882329F196
:101A5000E091E0011E9FF0011124EE51FE4F408104
:101A6000518162817381848195810E94AC0780914C
:101A7000E00190E00196877099278093E001D9CF2B
:101A80000E946D071092E1011092E001E2E1F2E0A4
:101A900086E0DF011D928A95E9F72C960FB6F8943F
:101AA000DEBF0FBECDBFDF91CF911F910895809112
:101AB00018028595859585950895809118028770FF
:101AC000089590911802977081E009F480E00895DC
:101AD00090918C0292FB222720F9281751F080FB6D
:101AE00092F990938C0280918B0290918C020C94CD
:101AF0006C0E089580918C0282FB882780F991E01A
:101B000089270C94680D81E00C94680D80E00C949A
:101B1000680D80912402089590912402892B80936E
:101B200024020895809590912402892380932402B1
:101B3000089510922402089590912302892B809396
:101B40002302089580959091230289238093230294
:101B5000089510922302089590912202892B809378
:101B60002202089580959091220289238093220277
:101B700008951092220208958091190208950895FF
:101B80000C94BF0D0C94C00D90918C0292FD08C076
:101B900090911902981721F0809319020C94C20DAC
:101BA000089580911902882329F01092190280E08B
:101BB0000C94C20D0895E0910001F0910101809113
:101BC00024028083E0910001F091010190818091D5
:101BD0002302892B8083E0910001F0910101908123
:101BE00080912202892B808380911902882381F0C1
:101BF000E0910001F09101019081892B8083809117
:101C00000001909101010E94DB1E81110E94D10D03
:101C100080910001909101010C94961E0C94BF0DCF
:101C200090918C0292FD10C098E0899F9001112440
:101C3000262B209318020E942E0880911802859569
:101C4000859585950C940E0E0C942E081092180212
:101C500080E00C940E0E20911802809582238093D0
:101C60001802982F977041F430E0482F082E000C8E
:101C7000550B2417350721F490918C0292FF07C071
:101C80008595859585950E944F080C94260E08959C
:101C900080E090E00E947F2721E0893E9E4F09F07E
:101CA00020E0822F089582E090E00C94772783E073
:101CB00090E00C947727CF9384E090E00E94772700
:101CC000C82F82E290E00E9477272C2F30E0A901F4
:101CD000582BCA01CF910895CF93C92F682F84E064
:101CE00090E00E9485276C2F82E290E0CF910C94C7
:101CF0008527AB01BC018FE090E00C949727AB01E6
:101D0000BC0183E190E00C94972760E070E0CB0188
:101D10000C947F0E60E070E0CB010E94790E0C9471
:101D2000850E69EE7EEF80E090E00E94A32760E0E0
:101D300082E090E00E94852760E083E090E00E94CE
:101D400085271092DC011092DD011092DE011092C5
:101D5000DF0160E084E090E00E94852760E082E29D
:101D600090E00E94852760E085E090E00E94852752
:101D700060E086E090E00E9485276FEF87E090E0CA
:101D80000E94852740E050E0BA0188E090E00E9480
:101D9000972760E08DE090E00E94852740E050E0CA
:101DA000BA0188E190E00E94972760E087E190E027
:101DB0000E94852740E050E0BA018CE190E00E944B
:101DC000972760E070E080E290E00E94A32740E067
:101DD00050E0BA0188E190E00E9497270C948A0EA7
:101DE0000C94910E682F8EE090E00C9485270E9451
:101DF000FD1F6093360270933702809338029093F0
:101E000039026093320270933302809334029093CC
:101E10003502089585B7806885BF85B7806885BF1E
:101E200008950C94D61308950C94130F0C94130F6B
:101E30000C94160F0C94130F0C941A0F0C94130F90
:101E40000E940A0F8DEE91E10E946B200E941E0FEE
:101E50000C941C0F0E94140F0C94130F0E94E81F87
:101E60000E94281F0E94D0120E941E1A0C94180F64
:101E70009F92AF92BF92CF92DF92EF92FF920F9319
:101E80001F93CF93DF93CDB7DEB72A970FB6F894A1
:101E9000DEBF0FBECDBF0E944B1381110E94F70E13
:101EA00086E2A82E82E0B82E00E010E0902E802F6F
:101EB0000E941412D82EF501C1905F01C826B1F41A
:101EC0000F5F1F4F0C30110589F78FEF89838A83CD
:101ED0001B820E94F11F8160782F9D838C83498132
:101EE0005A816B818D810E9459032FC080913A02E3
:101EF00081FD0E941A12E12CFF24F3948C2D8F2176
:101F0000F1F00E94110F882399F0EE829F82DF206A
:101F100081E009F480E088870E94F11F8160782FBA
:101F20009A8789874E815F8168858A850E945903D7
:101F3000F801EA5DFD4F8081F826F08206C0E39447
:101F4000FF0CF6E0EF12DACFBBCF0E94FD180E9423
:101F5000831E909125028917B9F00E94831E8093F9
:101F600025022A960FB6F894DEBF0FBECDBFDF91D3
:101F7000CF911F910F91FF90EF90DF90CF90BF9086
:101F8000AF909F900C9450032A960FB6F894DEBF42
:101F90000FBECDBFDF91CF911F910F91FF90EF90BA
:101FA000DF90CF90BF90AF909F90089580E090E039
:101FB0000895089528E4829FC0011124FC0126E0C1
:101FC000729FE00DF11D1124E60FF11DEE0FFF1FB2
:101FD000E450FF4F859194910895880F991FFC015B
:101FE000E45CFC4F859194910895CF93DF930E9418
:101FF0001611EC01811520E5920708F03FC081150C
:1020000040E4940708F0D2C0883E910500F5803E78
:10201000910508F002C1883A910570F4853A91055E
:1020200008F0A6C08130910509F49FC008F4F2C001
:10203000049708F0F2C0EEC08F3B910508F4A1C0F0
:10204000803C910508F4E6C0805C9109A5C081152B
:1020500050E2950760F4C11581E0D80708F0DDC0B3
:10206000CD3ED10508F4D6C0CE019065D7C081150C
:1020700020E3920708F093C09F708EC0811545E55C
:10208000940708F046C0811554E5950708F0A6C0EE
:10209000C11582E5D80718F5C11521E5D20708F06A
:1020A00088C0CE01F4E096958795FA95E1F7282F40
:1020B00023703C2F337081E090E002C0880F991F9D
:1020C0003A95E2F79C68922B2C2F2F702695269537
:1020D00040E2249F90011124822B932B9FC09E01EC
:1020E000237033279C2F96959695C115D34508F0FC
:1020F00065C041E050E002C0440F551F2A95E2F749
:1021000080E2989F90011124CA01822B932B9C6836
:1021100085C0811559E5950798F4C11588E5D8075C
:1021200008F061C0C11526E5D20708F073C08C2FF6
:102130000E94AA118F7190E0982F882790626EC03C
:1021400081154AE5940708F453C0905681159042D2
:1021500008F060C08D2F8F710E94AA119E01332755
:1021600030628F71A901582B53C081E090E056C0B6
:10217000855AC82FD0E0CF56DE4F888190E090641A
:102180004DC0885AC82FD0E0CC0FDD1FCD59DE4F8F
:1021900088819981946442C00E94ED0F3FC09927C5
:1021A000D3FF02C0986C3AC0906C38C09F70906AA0
:1021B00035C09C2F8827816F906A30C041E050E085
:1021C00002C0440F551F2A95E2F780E2989F9001C4
:1021D0001124CA01822B932B9A6820C0982F88273C
:1021E000846F906A1BC09C2F8827806F906A16C0EE
:1021F0008F700E94AA119E0194E0369527959A95BA
:10220000E1F72F7030E0322F22273069A901482BE7
:10221000CA0104C080E090E001C0CE01DF91CF91FF
:1022200008950E94DA0F0E94F50F089582389105F3
:1022300069F1B0F48133910509F46DC048F4893235
:10224000910509F463C08A32910509F469C00895C3
:102250008533910509F455C089339105B9F0089586
:10226000833E910569F138F4803E9105B1F0823EDC
:10227000910509F10895863E9105A9F1873E9105E2
:10228000B9F1843E910509F064C023C020918B020E
:1022900020FD4FC021FD4DC0089580918B0280FD2F
:1022A00044C080918C0280FF44C080918B0284FDE9
:1022B00042C083EE4DC080918B0282FF38C0F5CFC3
:1022C00080918B0282FD33C080918C0280FD31C0F1
:1022D000ECCF80918C0281FF32C080918B0284FD13
:1022E0002AC087EE35C080918B0283FF26C0F5CFD0
:1022F00080918B0283FD21C080918C0281FD1FC0E3
:10230000ECCF80918B0285FD1CC01DC080918B029B
:1023100085FD19C016C080918B0286FD16C017C0BE
:1023200080918B0286FD13C010C089E311C082EE3C
:102330000FC080EE0DC080E00BC086EE09C084EEB9
:1023400007C089E205C085E303C08AE201C081E3DA
:1023500090E0089590918B0292FF0DC0282F287174
:10236000283019F4877F846006C0282F2471243018
:1023700011F48B7F886093FF0DC0282F28712831BE
:1023800019F4877E846106C0282F2471243111F44A
:102390008B7E886120918C0220FF0DC0382F387110
:1023A000383019F4877F816006C0382F31713130A1
:1023B00011F48E7F886021FF0DC0282F28712831ED
:1023C00019F4877E816106C0282F2171213111F413
:1023D0008E7E886194FD877E089580E0089508953B
:1023E0000E94480E811102C00E94F00E0E94530EFE
:1023F00080933A020E945B0E90938C0280938B0232
:102400000E94EF110E94570E682F70E080E090E06C
:102410000E94CE076091D8017091D9018091DA01B4
:102420009091DB010C940608E82FF0E0E756FD4F91
:1024300080810895089580EA8A95F1F7089500C093
:1024400008950C941B1208950C9423120C942412DA
:102450000C9423120C942812F894E82FE295EF7054
:10246000F0E031A1282F2F7081E090E001C0880FAB
:102470002A95EAF7982F9095932391A392A1892BFF
:1024800082A37894089508950C9443120F931F9398
:10249000CF93DF93CAE9D1E089918F3F11F00E9479
:1024A0002C1281E0C03AD807B9F7C4E9D1E00AE9B3
:1024B00011E089918F3F11F00E942C120C171D071B
:1024C000C1F7DF91CF911F910F910895CF92DF92C5
:1024D000EF92FF920F931F93CF93DF938C01C62F40
:1024E000D0E0CE0186569E4F7C01FC0190819F3F3B
:1024F00009F44DC0D62EF894E92FE295EF70F0E084
:1025000081A19F7021E030E001C0220F9A95EAF787
:10251000822B81A382A12095282322A378940E9454
:102520001F12E4E9F1E020E030E0C12C51E04191DC
:102530004F3FB1F0A42FA295AF70B0E090968C9170
:1025400090E04F7002C0959587954A95E2F780FD1F
:1025500007C0852F022E01C0880F0A94EAF701C038
:1025600080E0C82A2F5F3F4F2630310501F7F70181
:1025700080818F3F11F00E942C1261E0C11001C0D8
:1025800060E08D2D0E942112C00FD11FC882DF9103
:10259000CF911F910F91FF90EF90DF90CF90089512
:1025A0000E94F0138091020180910201811102C00A
:1025B00096E001C090E09093A60286E0891B80938C
:1025C000A5020E944612EDE8F2E0A9E9B2E01192FC
:1025D0001D9282E0E939F807D1F786E00E949F1347
:1025E0000E94DE020C94FA130F931F93CF93DF9394
:1025F00000D000D000D0CDB7DEB70E94D6136091D6
:10260000A602882379F18E010F5F1F4F86E0F80143
:1026100011928A95E9F7862F90E0B80187569D4F71
:102620000E940814E091A5029E01295F3F4FF0E04F
:10263000E756FD4FD801882361F010E08D9190811D
:10264000981711F0808311E03196A217B307B1F704
:1026500006C011921D92A217B307D9F711E00E948C
:10266000E4020DC070E067567D4F8091A50290E0B6
:1026700087569D4F0E9498140E94441210E0812FAB
:1026800026960FB6F894DEBF0FBECDBFDF91CF9177
:102690001F910F910895EF92FF920F931F93CF9385
:1026A000DF93CDB7DEB72C970FB6F894DEBF0FBE21
:1026B000CDBF8E010F5F1F4F8CE0F80111928A95FC
:1026C000E9F7F12C6F2DC8010E946612F394F6E031
:1026D000FF12F8CF4CE050E0B8018DE892E00E9484
:1026E00061277C0121E0892B09F420E0E114F10449
:1026F00041F08CE0F801ADE8B2E001900D928A95CE
:10270000E1F76091A60270E067567D4F46E08DE8E4
:1027100092E00E94A013EF2819F40E94F41202C064
:1027200081E090E02C960FB6F894DEBF0FBECDBFCF
:10273000DF91CF911F910F91FF90EF900895089531
:10274000FF920F931F93CF93DF938C01F62ED72F19
:10275000C42F222349F081E080933D020E94F11FA3
:1027600090933C0280933B0280913D028823C1F00C
:1027700080913B0290913C020E940920059780F0D5
:10278000EF2DFD2FD8014C2F50E0CD01801B910B78
:10279000841795071CF48D918193F7CF10923D0219
:1027A000DF91CF911F910F91FF900895809140028A
:1027B00081110DC00E942627811102C082E001C054
:1027C00081E080934002823011F40E94212781E051
:1027D00090914002913009F080E008950C94D61356
:1027E0000E94EE13809302010E94D61381110C9473
:1027F000401408950E94D613811102C00C94421413
:10280000089581E0909141029A3008F080E00895A7
:102810000F931F93CF93DF93EC018B0180914102C3
:102820008A3038F4B801CE010E94961481111DC07F
:102830000AC080913E0290913F020E940920843F8D
:10284000914080F715C0809141028F3F19F08F5F52
:1028500080934102809141028A3060F00E94F11F12
:1028600090933F0280933E0203C01092410202C047
:1028700080E001C081E0DF91CF911F910F91089519
:102880000C94B91C0C94BC1CEF92FF920F931F93F5
:10289000CF93DF937901C82F880FDD0B41155105C8
:1028A000A9F08AE08C9FF0018D9FF00D1124ED5F5F
:1028B000FE4F838194818E5B9D4F228130E04217D1
:1028C000530708F49A01A9010E946E27CE010E94C5
:1028D000C61D892B09F50115110501F18AE08C9FB0
:1028E000F0018D9FF00D1124ED5FFE4F458150E00A
:1028F0000417150708F4A8018AE08C9FF0018D9F4A
:10290000F00D1124ED5FFE4F668177816E5B7D4F88
:10291000C7010E946E2702C080E001C081E0DF9104
:10292000CF911F910F91FF90EF9008950C94B515E2
:102930000C94D1150F931F93CF93DF9300D000D049
:10294000CDB7DEB760915B0270915C0280915D0251
:1029500090915E020E9418206436710581059105F0
:1029600028F10E944E1FDC01CB010296A11DB11D72
:1029700089839A83AB83BC8300E010E020E030E0E1
:1029800044E050E0BE016F5F7F4F82E00E9444143C
:10299000182F882361F00E94FD1F60935B027093E3
:1029A0005C0280935D0290935E0201C011E0812F72
:1029B0000F900F900F900F90DF91CF911F910F917B
:1029C0000895AF92BF92CF92DF92EF92FF920F9352
:1029D0001F93CF93DF937C015B016A010E94011476
:1029E000811103C001E010E002C00AE010E0C1E084
:1029F000D0E0F894B501C701F601099578948111EA
:102A000015C021960C171D0794F0CC9F9001CD9F07
:102A1000300D300D112480E090E045E34A95F1F748
:102A20000000019682179307C1F7E3CF81E0DF91A1
:102A3000CF911F910F91FF90EF90DF90CF90BF90BB
:102A4000AF900895AF92BF92CF92DF92EF92FF9234
:102A50000F931F93CF93DF93CDB7DEB727970FB6B2
:102A6000F894DEBF0FBECDBF7B01C090A601D09011
:102A7000A70101E010E09E01295F3F4F40E050E0D8
:102A800060E070E080E00E944414182F882309F46D
:102A90003EC056018FEFA81AB80A60915702709194
:102AA00058028091590290915A020E94182064366F
:102AB00071058105910518F106E010E09E012F5F78
:102AC0003F4F40E050E060E070E081E00E9444143D
:102AD000182F66E070E0C5010E941F1A91E02F8157
:102AE000281390E0192339F10E94FD1F60935702CB
:102AF000709358028093590290935A0211C066E075
:102B000070E0C5010E941F1A9F818913D5CF86E00E
:102B1000F6013196DE01119601900D928A95E1F74A
:102B2000112349F086E0FE013196A1E5B2E0019063
:102B30000D928A95E1F786E0E1E5F2E0D701019098
:102B40000D928A95E1F7812F27960FB6F894DEBF94
:102B50000FBECDBFDF91CF911F910F91FF90EF90EE
:102B6000DF90CF90BF90AF9008950F931F93CF93B6
:102B7000DF93EC018B0142E255E10E94E1148823CE
:102B800051F04AE954E1B801CE01DF91CF911F9194
:102B90000F910C94E11480E0DF91CF911F910F9180
:102BA00008950F931F93CF93DF93F894C091A601DC
:102BB000D091A701CE01019626E0FB01DC01019036
:102BC0000D922A95E1F766E070E00E941F1A888353
:102BD0007894F8946F81788589859A8500914D0263
:102BE00010914E0220914F023091500260177107F0
:102BF0008207930751F060934D0270934E028093C9
:102C00004F02909350020E94311F7894DF91CF9130
:102C10001F910F9108950E94691F0E94CC210E946C
:102C2000E5210E94F7210E942A0FFBCF893279F11A
:102C3000E0F4843161F1A0F4873009F075C010929E
:102C4000640294E190932601809325018CE38093A4
:102C5000240188E08093220188E28093210164C0EE
:102C600092EE980F9A30F0F05FC0803509F444C0BE
:102C700028F48F3409F058C08AE03FC0813529F02C
:102C8000823509F051C081E038C08FEF36C08091A5
:102C90006102882379F11092610210926002109211
:102CA0005F0242C08D5180936102833099F038F405
:102CB000813069F08230D9F486E291E00DC0853030
:102CC00099F078F0863099F481E291E005C084E6CD
:102CD00092E002C085E291E09093600280935F02EF
:102CE00023C084E291E0F8CF82E291E0F5CF109228
:102CF00061021AC080E0089586EFE0915F02F091D2
:102D00006002309789F02081082E000C990B820F09
:102D1000911D8F3F910519F014F08FEF04C097FFBC
:102D200002C0108201C0808381E008950F931F9339
:102D300041E050E060E070E08A019B0104C0000FB8
:102D4000111F221F331F8A95D2F7C901B8010E94B3
:102D5000CE071F910F910C946D078B3109F468C059
:102D600058F58B3009F486C078F4863009F445C0F4
:102D700020F4853009F44BC07FC0873009F44AC085
:102D8000883009F477C078C0803109F464C068F4F1
:102D90008E3009F071C080913A0282FB222720F91F
:102DA00091E0922790FB82F94CC0863109F462C011
:102DB000893109F45FC060C08A32E1F060F4873283
:102DC00009F455C028F48E3108F456C08D5150C016
:102DD0008932E9F051C0833450F48A3308F045C099
:102DE000853309F444C0883309F444C045C08334B2
:102DF000F1F142C00E94F00E3DC080913A02817F05
:102E00008E7F80933A0281E08093620208950E944F
:102E1000E70230C080913A02982F9095917090FB14
:102E200080F980933A02911125C0897F877F10C075
:102E300080913A0281FB222720F991E0922790FBB2
:102E400081F980933A029923A9F080913A02816036
:102E500080933A020FC080913A0283FB222720F927
:102E600091E0922790FB83F9ECCF895301C080E079
:102E70000E94961681E0089580E0089580E008950C
:102E80000C943E17CF93C82F80916202813069F075
:102E900038F08230C1F58C2F0E94161681E039C0BF
:102EA0000E94890D823289F504C00E94890D823208
:102EB00061F48C2F0E944017811104C08C2F0E9456
:102EC000AD161FC081E090E01CC08C2F0E943E1701
:102ED000811116C0C43189F058F4CB3089F0C0316B
:102EE000B1F482E08093620288E30E94161608C063
:102EF000C93219F0C83321F00AC01092620207C02B
:102F000081E0817006C01092620280E002C080E021
:102F1000F8CFCF91089580916B0280FF0BC0609134
:102F2000250185E0689FB001112475956795759519
:102F300067952BC081FF09C06091250185E0689FDE
:102F4000B00111247595679520C082FF07C060917C
:102F5000250185E0689FB001112417C090916A0295
:102F60009923D1F060912401961788F720912501CB
:102F700085E0289F90011124929FA001939F500DFE
:102F8000112470E0CA010E9433276038710540F4B3
:102F90006115710519F406C065E070E0862F08958B
:102FA0008FE7089581E0089580916B0280FF08C04B
:102FB0006091220170E0759567957595679521C0C0
:102FC00081FF06C06091220170E07595679519C078
:102FD00082FF04C06091220170E010C090916902EC
:102FE000992399F0609121019617A0F78091220111
:102FF000899FC001112470E00E9433276038710559
:1030000040F46115710519F406C061E070E0862F87
:1030100008958FE7089581E008958D3E21F40E9480
:103020008B17819504C08E3E29F40E948B178093E4
:103030006F0208958F3E21F40E948B17819504C082
:10304000803F29F40E948B1780936E020895893F78
:1030500019F40E94D41705C08A3F31F40E94D41796
:1030600081958093700208958B3F21F40E94D417BC
:10307000819504C08C3F29F40E94D417809371027B
:1030800008959FE0980F983078F421E030E0A9018E
:1030900002C0440F551F9A95E2F7CA0190916D0244
:1030A000892B80936D0208958D3F21F480916B02EE
:1030B00081600BC08E3F21F480916B02826005C05D
:1030C0008F3F29F480916B02846080936B02089596
:1030D0008D3E39F490916F0297FF35C010926F02C8
:1030E00059C08E3E29F490916F021916BCF32BC083
:1030F00090916E028F3E29F497FF25C010926E02C8
:1031000049C0803F19F41916CCF31DC0909170028C
:10311000893F29F41916BCF4109270023BC08A3F13
:1031200019F497FF10C0F8CF8B3F39F490917102DA
:1031300097FF09C0109271022DC08C3F21F490912D
:1031400071021916BCF39FE0980F983080F421E0CB
:1031500030E0A90102C0440F551F9A95E2F7CA0159
:10316000809590916D02892380936D0213C08D3FED
:1031700021F480916B028E7F0BC08E3F21F48091F1
:103180006B028D7F05C08F3F29F480916B028B7F8E
:1031900080936B0280916E02811106C080916F0254
:1031A000811102C010926A0280917002811106C0E2
:1031B00080917102811102C01092690208950E94EB
:1031C000F11F20916E02211104C020916F02222371
:1031D00021F0909368028093670220917002211180
:1031E00004C020917102222321F090936602809303
:1031F00065028CE692E00C94A11EEF92FF920F9371
:103200001F93CF93DF9300D000D000D0CDB7DEB7AF
:1032100086E0ECE6F2E0DE01119601900D928A95CF
:10322000E1F7E0906E02F0906F0200917002109151
:10323000710210926E0210926F0210927002109240
:103240007102E11003C0FF2009F45DC080916702A4
:10325000909168020E940920AC0190916A02992322
:1032600039F02091260130E02417350758F04BC083
:10327000209164028AE0289F9001112424173507C9
:1032800018F041C09F3F19F09F5F90936A02EE20B3
:1032900061F00E948B171E1414F09FEF01C091E0A3
:1032A000989F902D112490936E02FF2061F00E9450
:1032B0008B171F1414F09FEF01C091E0989F902D81
:1032C000112490936F0230916E023323E1F020912C
:1032D0006F022223C1F045EB3403C001112499236E
:1032E00019F090936E0203C081E080936E0235EB7B
:1032F0002303C0011124992319F090936F0203C096
:1033000081E080936F02011103C0112309F45DC0B5
:1033100080916502909166020E940920AC01909113
:103320006902992339F02091230130E024173507F1
:1033300058F04BC0209163028AE0289F900111242D
:103340002417350718F041C09F3F19F09F5F9093F5
:103350006902002361F00E94D417101614F09FEF49
:1033600001C091E0989F902D112490937002112339
:1033700061F00E94D417111614F09FEF01C091E084
:10338000989F902D112490937102309170023323F5
:10339000E1F0209171022223C1F045EB3403C0011A
:1033A0001124992319F09093700203C081E0809357
:1033B000700235EB2303C0011124992319F0909377
:1033C000710203C081E08093710280916E028111CD
:1033D0000BC080916F02811107C080917002811132
:1033E00003C08091710281110E94DF18EB82FC8280
:1033F0000D831E8386E0FE013196ACE6B2E00190BB
:103400000D928A95E1F726960FB6F894DEBF0FBEAF
:10341000CDBFDF91CF911F910F91FF90EF90089555
:10342000ECE6F2E086E0DF011D928A95E9F7109262
:103430006A021092690210926B0208950895FC01CD
:10344000680F791F8FEF91E3E617F70771F021916D
:10345000822728E030E087FF03C0880F892701C05A
:10346000880F21503109B9F7EFCF08950F931F93BB
:10347000CF93DF93C42FD22FFC0182818823C9F020
:10348000409374020E94F11F909373028093720222
:1034900080E28C0F883008F057C0C77081E001C00F
:1034A000880FCA95EAF7DF91CF911F910F910C9485
:1034B000E00480917402481330C0809172029091B0
:1034C00073020E940920883C910538F510E21D0F17
:1034D000CD17B9F080E28C0F883040F4C77081E0DE
:1034E00001C0880FCA95EAF70E94E704183028F552
:1034F00081E09D2F977001C0880F9A95EAF70E948E
:10350000E004802F0E94D7041830F0F4D77081E0D7
:1035100001C0880FDA95EAF70AC080E28C0F883084
:1035200098F4C77081E001C0880FCA95EAF7DF916F
:10353000CF911F910F910C94E704802FDF91CF91D1
:103540001F910F910C94D704DF91CF911F910F9190
:1035500008950F939C01CB01243F4CE5340731F1D2
:1035600088F4293DFCE53F07D9F02A3D4CE53407B6
:1035700079F1283D3C45A9F506E221EE41EE68EDE2
:103580007CE52BC0263FFCE53F07E1F0A8F0273F94
:103590003C4539F507E225EE46EE67EF7CE51DC0B8
:1035A00007E225EE45EE69ED7CE517C006E221EE67
:1035B00040EE64EF7CE511C007E225EE44EE65EFD6
:1035C0007CE50BC006E221EE42EE66EF7CE505C02D
:1035D00008E221E045EE6AED7CE50E94361A80E0C3
:1035E00008C0FC018281882319F01092740201C086
:1035F00081E00F910895CF93DF93EC01FB0182816D
:10360000882309F426C1C430FDE5DF0760F4CB3F11
:103610009CE5D90768F49E0122503C4524313105D0
:1036200008F018C105C0C236EDE5DE0709F012C189
:103630000E945B0E90938C0280938B02C031FCE55C
:10364000DF0709F4CAC008F041C0C8309CE5D907BB
:1036500009F4A4C0F0F4C430FCE5DF0709F48CC021
:1036600068F4C2309CE5D90709F482C0C330DC4558
:1036700009F0E5C080918B028260DFC0C630FCE5B6
:10368000DF0709F483C008F085C080918B02886051
:10369000D4C0CC309CE5D90709F490C068F4CA3096
:1036A000FCE5DF0709F47EC008F084C00E946D07C6
:1036B00080918B028068C1C0CE309CE5D90709F4A7
:1036C00081C008F086C080918B0294C0CD3FFCE59C
:1036D000DF0709F47BC038F5C4319CE5D90709F44C
:1036E0009AC058F4C231FCE5DF0709F47AC008F04B
:1036F0007EC080918B028F7BA0C0CB3F9CE5D90719
:10370000F1F108F03FC0C531DC4509F098C0809167
:103710008B0282FB222720F991E0922790FB82F90D
:1037200090FB83F98AC0C1308DE5D80709F467C0E2
:1037300050F480918C02CF3FECE5DE07C1F108F038
:103740005BC08D7F65C0C3308DE5D80709F471C0BB
:1037500008F46DC0C236DD4509F071C080918B025E
:1037600084FB222720F991E0922790FB84F965C021
:1037700080918B02816061C080918B0216C0809124
:103780008C0216C080918C02826042C080918B02B4
:10379000806153C080918B0280624FC080918B0208
:1037A00080644BC080918B028860846046C08260D8
:1037B00081602EC080918B028E7F3FC080918B02F2
:1037C0008D7F3BC080918B02877F37C080918C02B8
:1037D00014C080918B028F7E30C080918B028F7DD0
:1037E0002CC00E946D0780918B028F7726C080913C
:1037F0008B02877F8B7F21C08D7F8E7F09C0809158
:103800008C02982F909591708E7F892B90FB81F977
:1038100080938C0214C00E946D0780918B0287FBFD
:10382000222720F991E0922790FB87F906C081E0DA
:1038300001C080E00E94F20E02C080938B02809152
:103840008B0290918C020E946C0E0E946D0780E0AA
:1038500001C081E0DF91CF910895CF93DF9386314E
:103860009C4541F5EB010E94890D982F8A8120919A
:10387000000130910101882379F09A7A81E009F4FE
:1038800080E080937502911102C069E201C065E396
:10389000C9010E941D1F0AC080917502811102C0DA
:1038A00069E201C065E3C9010E941F1F0E94DB0D90
:1038B00080E001C081E0DF91CF9108958EE1489BC7
:1038C00002C08150E1F7489BFECF0895589880E2EE
:1038D0008A95F1F7589A0895FC012AE02A95F1F7A4
:1038E00028E090E080E031E040E14A95F1F7880F70
:1038F000489B02C08160932700C0000040E14A95C8
:10390000F1F7215089F720E12A95F1F729B100C09C
:10391000000030E13A95F1F7217092272081920F53
:1039200090830895EF92FF920F931F93CF93DF93AD
:103930001F92CDB7DEB719828C017C01E60EF11C17
:103940000E151F0551F00E945E1CCE0101960E94CB
:103950006C1CF80181938F01F3CF81E09981911163
:1039600080E00F90DF91CF911F910F91FF90EF902A
:103970000895509A589A08955098589AE89AE9E606
:10398000F0E080818C7F80830895615091E001C0D8
:10399000990F6A95EAF720E031E0992361F0492F09
:1039A000482319F0589A232701C0589840E24A95B5
:1039B000F1F79695F2CF222311F0589A01C058984A
:1039C00080E28A95F1F758980895FF920F931F931C
:1039D000CF93DF93EC018C01060F111DC017D107A7
:1039E00041F0F9900E94661C68E08F2D0E94C51C72
:1039F000F5CFDF91CF911F910F91FF9008951F9206
:103A00000F920FB60F921124EF92FF920F931F9314
:103A10002F933F934F935F936F937F938F939F93D6
:103A2000AF93BF93EF93FF93CF93DF931F92CDB7E5
:103A3000DEB719820E945E1CCE0101960E946C1CAA
:103A4000A82FA695A695A6959A2F969595702A2F9C
:103A50002570920F292F237096959695920F877057
:103A600089137CC08981811179C0A43008F076C0A7
:103A700080E18A95F1F7589A509AB2E0BA95F1F739
:103A800000C05898EA2EF12CEAE0AE9FD001112434
:103A9000AD5FBE4F1896ED91FC9119973097B1F03C
:103AA0006091A6017091A70116962D913C911797F0
:103AB000260F371F13968D919C911497680F791FCD
:103AC00015964C91159712968C9109958AE08E9DCA
:103AD000F0018F9DF00D1124ED5FFE4F658166238F
:103AE00051F08091A6019091A70126813781820F24
:103AF000931F0E94E51C0E94661CF0E1FA95F1F705
:103B000058985098589A80E18A95F1F78AE08E9DEE
:103B100080018F9D100D11240D5F1E4FD80112964C
:103B20006C911297662399F08091A6019091A7015C
:103B300013962D913C911497820F931F0E94921C13
:103B4000D801ED91FC91811105C082E004C0D8013B
:103B5000ED91FC9188E080830E945E1C0F90DF91C4
:103B6000CF91FF91EF91BF91AF919F918F917F91F5
:103B70006F915F914F913F912F911F910F91FF9006
:103B8000EF900F900FBE0F901F9018950F931F93FB
:103B9000CF93DF93843091050CF0A9C02AE0289FD1
:103BA000F001299FF00D1124ED5FFE4F208131813E
:103BB000232B09F49CC0EC01F894509A589885E0A6
:103BC0008A95F1F700008C2F869585709C2F957053
:103BD000890F982F9370869586958E0123E0000FAC
:103BE000111F2A95E1F7890F082B0E94661CA4E09B
:103BF000AA95F1F700C068E0802F0E94C51CB0E1D3
:103C0000BA95F1F75098589A489902C000C0FCCF75
:103C100087E090E0489B17C0019799F4509A589A12
:103C20008AE08C9FF0018D9FF00D1124ED5FFE4F17
:103C30000190F081E02D81E08083789481E090E034
:103C400058C000C0E7CF8AE08C9F80018D9F100D87
:103C500011240D5F1E4FF80165816623B9F0809134
:103C6000A6019091A70126813781820F931F0E94A0
:103C7000921C81110BC0509A589AD801ED91FC9179
:103C800082E08083789482E090E033C00E945E1CE2
:103C9000B0E2BA95F1F75898509AE0E1EA95F1F759
:103CA0008AE08C9FF0018D9FF00D1124ED5FFE4F97
:103CB0006281662351F08091A6019091A701238132
:103CC0003481820F931F0E94E51C0E94661C8AE0CB
:103CD0008C9FF0018D9FF00D1124ED5FFE4F019040
:103CE000F081E02D1082789480E090E002C084E0C2
:103CF00090E0DF91CF911F910F91089590937C02F6
:103D000080937B0208950E94D613811103C0809195
:103D100076020895E0917B02F0917C02309721F0C9
:103D20000190F081E02D099480E00895E0917B02FC
:103D3000F0917C02309721F00280F381E02D09940C
:103D40000895E0917B02F0917C02309739F022E0F7
:103D5000DC012C930480F581E02D099408952091D5
:103D6000790230917A022817390771F090937A021C
:103D700080937902E0917B02F0917C02309721F0F0
:103D80000680F781E02D0994089520917702309103
:103D900078022817390771F09093780280937702A0
:103DA000E0917B02F0917C02309721F00084F18554
:103DB000E02D09940895FC01329697E080E091503F
:103DC00029F021912223D9F38F5FF9CF089566233B
:103DD00049F0FC01329608962191621729F0E81704
:103DE000F907D1F780E0089581E008959C01FC0176
:103DF00032969FEF80E04191461789F09F3F19F47A
:103E0000411101C0982F8F5F8630A9F79F3F39F08D
:103E1000F901E90FF11D97FDFA9562830895089560
:103E20009C012A5F3F4FFC014281461301C0128270
:103E3000019682179307B9F708950C94F61E0C9417
:103E4000101F029626E0FC0111922A95E9F70895C9
:103E50001092A8021092A9021092AA021092AB022C
:103E60000895CF92DF92EF92FF926B017C010E9446
:103E7000D61381110EC00E94FD1FC61AD70AE80A88
:103E8000F90AC092A802D092A902E092AA02F09286
:103E9000AB02FF90EF90DF90CF9008950F931F93A8
:103EA0000E94D613882321F01F910F910C94FD1FBF
:103EB0000E94FD1F0091A8021091A9022091AA0260
:103EC0003091AB02600F711F821F931F1F910F91E2
:103ED0000895089508950C946A1F0C946A1FCF9357
:103EE0000E946D1F0E944B130E946B1FC0E08C2F1D
:103EF0000E941412811104C0CF5FCC30C1F701C001
:103F000081E0CF9108950C946A1F0C94831F8091D7
:103F1000B402843049F10E94851F80E00E94500362
:103F200010927D0220E488E190E00FB6F894A89505
:103F3000809360000FBE2093600083B7817F846010
:103F400083BF83B7816083BF7894889583B78E7F62
:103F500083BF0FB6F894A895809160008861809324
:103F60006000109260000FBE08950C946A1F0E94BA
:103F70006D070E94831E0E9450030C94B51F1F9270
:103F80000F920FB60F9211248F939F93AF93BF930D
:103F900080917D02811113C08091AC029091AD029D
:103FA000A091AE02B091AF024196A11DB11D8093C8
:103FB000AC029093AD02A093AE02B093AF02BF915A
:103FC000AF919F918F910F900FBE0F901F901895FA
:103FD00082E084BD93E095BD9AEF97BD80936E001B
:103FE00008952FB7F8948091AC029091AD02A09102
:103FF000AE02B091AF022FBF08952FB7F894609131
:10400000AC027091AD028091AE029091AF022FBFD1
:1040100008959C014FB7F8948091AC029091AD0245
:10402000A091AE02B091AF024FBF821B930B0895D7
:10403000CF92DF92EF92FF922FB7F894C090AC022C
:10404000D090AD02E090AE02F090AF022FBFA7017A
:104050009601261B370B480B590BCA01B901FF907B
:10406000EF90DF90CF90089578941F920F920FB643
:104070000F9211248F939F93AF93BF938091AC02C3
:104080009091AD02A091AE02B091AF020196A11D38
:10409000B11D8093AC029093AD02A093AE02B09399
:1040A000AF02BF91AF919F918F910F900FBE0F9074
:1040B0001F90189587E797E7909301088093000871
:1040C0009AE088E10FB6F894A895809360000FBE3F
:1040D00090936000FFCF9093A9018093A801089569
:1040E0008091890208959091B402943031F58093C3
:1040F0007E027093800260937F0282E08093E900E9
:104100008FEF9091E800815095FD06C095ED9A954E
:10411000F1F700008111F5CF8091E80085FF0DC017
:1041200040E050E063E070E08EE792E00E9483227E
:104130008091E8008E778093E8000895BC0184E0C8
:104140000C947320BC0183E00C94732022E0209334
:10415000E9002FEF3091E800215035FD06C035ED24
:104160003A95F1F700002111F5CF2091E80025FFE5
:104170000BC040E050E066E070E00E948322809136
:10418000E8008E778093E8000895CF93DF9321E0D5
:104190002093E9002FEF3091E800215035FD06C053
:1041A00035ED3A95F1F700002111F5CF2091E800A7
:1041B00025FF14C0EC0140E050E068E070E00E9490
:1041C00083228091E8008E778093E80088E0FE01EA
:1041D000A1E8B2E001900D928A95E1F7DF91CF91CD
:1041E00008958091B302811109C00E9414240E9495
:1041F00071248091E20084608093E200089510921F
:10420000B302089508950895089542E061EC81E0B5
:104210000E948D2342E261EC82E00C948D23809118
:10422000B602833009F460C030F4813071F082301E
:1042300009F499C008958A3009F485C08B3009F4D7
:104240006BC0893009F0A7C020C08091B502813AC7
:1042500009F0A1C08091E800877F8093E8008091F9
:10426000B9029091BA02892B21F468E081E892E0CA
:1042700003C060E080E090E070E00E94CE22809178
:10428000E8008B778093E80008958091B502813231
:1042900009F081C08091B9029091BA02029708F0AA
:1042A0007AC08091E800877F8093E8008091E800E1
:1042B00082FD05C08091B4028111F8CF6CC02091BD
:1042C000F3008091F20090E0922B029729F4809104
:1042D000F1008B7F813021F48091F100809389027D
:1042E0008091E8008B7753C08091B502813A09F044
:1042F00052C08091B9029091BA02892B09F04BC04B
:104300008091E800877F8093E8008091E80080FF3B
:10431000FCCF8091310136C08091B5028132D9F550
:104320008091B9029091BA02892BA9F58091E80099
:10433000877F8093E8000E94C2238091B702809318
:1043400031010C946D078091B502813221F5809185
:10435000E800877F8093E8000E94C2238091B80222
:1043600080938A0208958091B502813AA1F48091E8
:10437000E800877F8093E8008091E80080FFFCCF11
:1043800080918A028093F1008091E8008E7780937B
:10439000E8000C94C223089584B7877F84BF0FB6CA
:1043A000F894A895809160008861809360001092D5
:1043B00060000FBE90E080E80FB6F8948093610033
:1043C000909361000FBE0C94200F0E9414240E9451
:1043D0007124E2EEF0E080818460808378940E9412
:1043E00006270E942E0F87E291E00C947E1E80919A
:1043F000B4028530A9F48091B402853079F40E942A
:10440000871F8091B2028823B1F30E946F1F882317
:1044100091F30E946D220E946D07EDCF0E94B71F9D
:104420000C94380F0C941422292F33272330310594
:10443000C9F060F42130310581F02230310509F0F6
:1044400044C08BE390E02EE733E043C021323105D6
:10445000E1F02232310549F138C082E190E029EBE8
:1044600033E037C099278130910549F028F0029751
:1044700061F5ECE3F3E005C0EAE7F3E002C0EAE649
:10448000F3E0849190E09F0124C06115710541F033
:1044900061307105D1F489E090E029EA33E019C078
:1044A00089E090E020E933E014C06115710541F026
:1044B0006130710551F48BE790E02BEC33E009C0DB
:1044C00080E490E026E434E004C080E090E020E066
:1044D00030E0FA0131832083089580E189BD82E1D3
:1044E00089BD09B400FEFDCF8091D8008F7D8093F7
:1044F000D8008091E00082608093E0008091E0002D
:1045000081FDFCCF0895CF92DF92EF92FF920F933F
:104510001F93CF93DF93EC018B017A010E94E1237B
:10452000811133C0E114F10439F0F70180819181E8
:10453000081B190BC80FD91FC12CD12C011511054F
:1045400019F18091E80085FD16C08091E8008E7712
:104550008093E800E114F10449F0F7018081918132
:10456000C80ED91ED182C08285E00FC00E94E1230F
:10457000882321F30AC089918093F1000150110929
:10458000FFEFCF1ADF0ADACF80E0DF91CF911F91E2
:104590000F91FF90EF90DF90CF9008952091BB0294
:1045A0003091BC022617370748F06115710539F4C0
:1045B0002091E8002E772093E80001C0B901FC01AA
:1045C00020E06115710579F18091B4028823F1F141
:1045D0008530F1F18091E80083FD3CC08091E800D6
:1045E00082FD2EC08091E80080FFEBCF2091F30088
:1045F0008091F20090E0922B6115710551F08830A6
:10460000910538F421912093F100615071090196D0
:10461000F3CF21E0089709F020E08091E8008E7741
:104620008093E800CECF2111CFCF0AC08091B40291
:10463000882361F0853061F08091E80083FD0AC035
:104640008091E80082FFF2CF80E0089582E0089533
:1046500083E0089581E008952091BB023091BC026F
:104660002617370748F06115710539F42091E800E5
:104670002E772093E80001C0B901FC0120E061150C
:10468000710591F18091B402882309F440C085300E
:1046900009F43FC08091E80083FD3DC08091E800AF
:1046A00082FD2FC08091E80080FFE9CF2091F300C8
:1046B0008091F20090E0922B6115710559F08830DD
:1046C000910540F424912093F100319661507109D5
:1046D0000196F2CF21E0089709F020E08091E800F0
:1046E0008E778093E800CBCF2111CCCF0AC0809188
:1046F000B402882361F0853061F08091E80083FD89
:104700000AC08091E80082FFF2CF80E0089582E045
:10471000089583E0089581E00895982F973068F513
:104720009093E900981739F07091EC002091ED001A
:104730005091F00003C0242F762F50E021FD02C0DD
:104740009F5FECCF3091EB003E7F3093EB003091D8
:10475000ED003D7F3093ED003091EB003160309300
:10476000EB007093EC002093ED005093F00020914B
:10477000EE0027FDE5CF80E008958F708093E9007B
:1047800081E008958091B50287FF11C08091E80013
:1047900082FD05C08091B4028111F8CF11C08091D3
:1047A000E8008B770BC08091B402882349F0809198
:1047B000E80080FFF8CF8091E8008E778093E800D2
:1047C00008952091E4003091E50095E64091EC00D9
:1047D000842F817040FF23C08091E80080FD1DC0C0
:1047E0008091B402882399F0853099F08091EB0094
:1047F00085FD11C04091E4005091E5002417350774
:1048000029F3915011F09A01E1CF84E0089582E0FC
:10481000089583E0089581E0089580E0089540912F
:10482000E80042FFDDCF08950E9482240E948A247E
:10483000E0EEF0E0808181608083E8EDF0E080814F
:104840008F77808319BCA7EDB0E08C918E7F8C931D
:1048500080818F7E80831092B30208950F931F93FF
:10486000CF93DF930E9482240E948A24C8EDD0E077
:1048700088818F77888388818068888388818F7D0D
:10488000888319BC1092B4021092B0021092B20246
:104890001092B10200EE10E0F80180818B7F8083DE
:1048A00088818160888342E060E080E00E948D23FF
:1048B000E1EEF0E080818E7F8083E2EEF0E08081A7
:1048C00081608083808188608083F80180818E7F11
:1048D0008083888180618883DF91CF911F910F91C0
:1048E0000895E8EDF0E080818F7E8083E7EDF0E0D1
:1048F00080818160808384E082BF81E08093B30205
:104900000C942E24E8EDF0E080818E7F808310925D
:10491000E20008951092DA001092E10008951F92CB
:104920000F920FB60F9211242F933F934F935F93E3
:104930006F937F938F939F93AF93BF93EF93FF9367
:104940008091E10082FF0BC08091E20082FF07C0EE
:104950008091E1008B7F8093E1000E940527809188
:10496000DA0080FF1FC08091D80080FF1BC08091BB
:10497000DA008E7F8093DA008091D90080FF0DC02D
:1049800080E189BD82E189BD09B400FEFDCF81E0EF
:104990008093B4020E94F12005C019BC1092B402A9
:1049A0000E94FF208091E10080FF19C08091E20009
:1049B00080FF15C08091E2008E7F8093E20080919D
:1049C000E20080618093E2008091D8008062809351
:1049D000D80019BC85E08093B4020E940321809125
:1049E000E10084FF30C08091E20084FF2CC080E1B0
:1049F00089BD82E189BD09B400FEFDCF8091D80058
:104A00008F7D8093D8008091E1008F7E8093E100BC
:104A10008091E2008F7E8093E2008091E2008160CD
:104A20008093E2008091B002882311F084E007C0F7
:104A30008091E30087FD02C081E001C083E08093A4
:104A4000B4020E9404218091E10083FF29C080917B
:104A5000E20083FF25C08091E100877F8093E10021
:104A600082E08093B4021092B0028091E1008E7FC8
:104A70008093E1008091E2008E7F8093E20080913C
:104A8000E20080618093E20042E060E080E00E940A
:104A90008D238091F00088608093F0000E940221B5
:104AA000FF91EF91BF91AF919F918F917F916F9106
:104AB0005F914F913F912F910F900FBE0F901F90DC
:104AC00018951F920F920FB60F9211242F933F93B8
:104AD0004F935F936F937F938F939F93AF93BF9306
:104AE000CF93DF93EF93FF93C091E900CF70809154
:104AF000EC00D82FD17080FDD0E81092E9008091B1
:104B0000F000877F8093F00078940E94A525109292
:104B1000E9008091F00088608093F000CD2BCF7089
:104B2000C093E900FF91EF91DF91CF91BF91AF91D9
:104B30009F918F917F916F915F914F913F912F91B5
:104B40000F900FBE0F901F9018951F93CF93DF9378
:104B5000CDB7DEB7AA970FB6F894DEBF0FBECDBFB4
:104B6000E5EBF2E08091F100819322E0ED3BF2076A
:104B7000C9F70E940F218091E80083FF2EC1809128
:104B8000B5029091B602492F50E04A30510508F025
:104B900024C1FA01EC58FF4F0C944727803821F0CC
:104BA000823809F01AC108C08091B1029091B20216
:104BB000992389F082600FC08091B9028F7087308D
:104BC00008F00BC18093E9008091EB0085FB8827FA
:104BD00080F91092E9009091E800977F9093E800A7
:104BE0008093F1001092F100D1C0282F2D7F09F0A1
:104BF000F4C0882319F0823061F0EFC08091B702D1
:104C0000813009F0EAC0933009F080E08093B2026D
:104C10002EC08091B70281112AC08091B9028F7095
:104C20002FEF280F263008F0D8C08093E90020919C
:104C3000EB0020FF1CC0933021F48091EB008062D8
:104C400014C09091EB0090619093EB0021E030E074
:104C5000A90102C0440F551F8A95E2F74093EA006C
:104C60001092EA008091EB0088608093EB00109234
:104C7000E9008091E800877F8093E8000E94C223CA
:104C8000ACC08111AAC01091B7021F778091E300D8
:104C90008078812B8093E3008091E800877F809368
:104CA000E8000E94C2238091E80080FFFCCF809141
:104CB000E30080688093E300111102C082E001C02C
:104CC00083E08093B40289C08058823008F085C0A8
:104CD0008091B7029091B8028C3D53E0950779F529
:104CE00083E08A838AE289834FB7F894DE011396C2
:104CF00020E03EE051E2E32FF0E050935700E491D2
:104D000020FF03C0E295EF703F5FEF708E2F90E0C1
:104D1000EA3010F0C79601C0C0968D939D932F5F27
:104D2000243149F74FBF8091E800877F8093E800E6
:104D30006AE270E0CE0101960E94CE2216C0609118
:104D4000B9027091BA02AE014F5F5F4F0E9412220A
:104D5000BC01892B09F441C09091E800977F9093A2
:104D6000E80089819A810E942C238091E8008B774A
:104D70008093E80032C0803881F58091E800877F19
:104D80008093E8008091B0028093F1008091E80068
:104D90008E7772CF811121C08091B7029091B802B5
:104DA00099270297D4F48091E800877F8093E800E8
:104DB0008091B7028093B0020E94C2238091B0021A
:104DC000811106C08091E30087FD02C081E001C02F
:104DD00084E08093B4020E9405218091E80083FF63
:104DE0000AC08091E800877F8093E8008091EB0003
:104DF00080628093EB00AA960FB6F894DEBF0FBED8
:104E0000CDBFDF91CF911F9108950895CF938091E9
:104E1000B4028823A1F0C091E900CF709091EC001A
:104E2000892F817090FD80E8C82B1092E900809155
:104E3000E80083FD0E94A525CF70C093E900CF91C3
:104E400008950E9414241092B4020895E8EDF0E051
:104E50008081806180838AE18A95F1F700C080912A
:104E6000D9008170089597FB072E16F4009407D09F
:104E700077FD09D00E944D2707FC05D03EF49095A0
:104E800081959F4F0895709561957F4F0895EE0F1E
:104E9000FF1F0590F491E02D0994AA1BBB1B51E163
:104EA00007C0AA1FBB1FA617B70710F0A61BB70B9A
:104EB000881F991F5A95A9F780959095BC01CD013F
:104EC0000895FB01DC0104C08D910190801921F44B
:104ED00041505040C8F7881B990B0895FB01DC0135
:104EE00002C001900D9241505040D8F70895F999B1
:104EF000FECF92BD81BDF89A992780B50895A8E1AB
:104F0000B0E042E050E00C94AB27262FF999FECF99
:104F100092BD81BDF89A019700B4021639F01FBA0C
:104F200020BD0FB6F894FA9AF99A0FBE0895039629
:104F3000272F0E9486270E948527252F0E948627DB
:104F4000242F0C9486270196272F0E9486270C94E5
:104F50008527DC01CB01FC01F999FECF06C0F2BD2B
:104F6000E1BDF89A319600B40D9241505040B8F727
:064F70000895F894FFCF44
:104F76001A0201A7020000000100000000A70200BB
:104F860000000601000000A7020407000000000060
:104F9600002808643C07147020C520A620A2209E85
:104FA6002001E200E900EA00B500B600B700CD0036
:104FB6008301CC008A01920194012102230224027A
:104FC6002502260227022A02B300B4006F007000F1
:104FD600818283E200E900EA00B500B600B700CDA1
:104FE600008301CC008A019201940121022302244C
:104FF600022502260227022A02B300B4006F0070BF
:1050060000818283946697C63435F6F7313332369B
:0850160000000000000042024E
:00000001FF
